{
  "contractName": "Election",
  "abi": [
    {
      "inputs": [],
      "stateMutability": "nonpayable",
      "type": "constructor"
    },
    {
      "inputs": [
        {
          "internalType": "uint256",
          "name": "",
          "type": "uint256"
        }
      ],
      "name": "candidateDetails",
      "outputs": [
        {
          "internalType": "string",
          "name": "name",
          "type": "string"
        },
        {
          "internalType": "string",
          "name": "party",
          "type": "string"
        },
        {
          "internalType": "uint256",
          "name": "voteCount",
          "type": "uint256"
        },
        {
          "internalType": "uint256",
          "name": "constituency",
          "type": "uint256"
        },
        {
          "internalType": "uint256",
          "name": "candidateId",
          "type": "uint256"
        }
      ],
      "stateMutability": "view",
      "type": "function",
      "constant": true
    },
    {
      "inputs": [],
      "name": "owner",
      "outputs": [
        {
          "internalType": "address",
          "name": "",
          "type": "address"
        }
      ],
      "stateMutability": "view",
      "type": "function",
      "constant": true
    },
    {
      "inputs": [
        {
          "internalType": "address",
          "name": "",
          "type": "address"
        }
      ],
      "name": "voterDetails",
      "outputs": [
        {
          "internalType": "address",
          "name": "voterAddress",
          "type": "address"
        },
        {
          "internalType": "string",
          "name": "name",
          "type": "string"
        },
        {
          "internalType": "string",
          "name": "aadhar",
          "type": "string"
        },
        {
          "internalType": "uint256",
          "name": "constituency",
          "type": "uint256"
        },
        {
          "internalType": "bool",
          "name": "hasVoted",
          "type": "bool"
        },
        {
          "internalType": "bool",
          "name": "isVerified",
          "type": "bool"
        }
      ],
      "stateMutability": "view",
      "type": "function",
      "constant": true
    },
    {
      "inputs": [
        {
          "internalType": "uint256",
          "name": "",
          "type": "uint256"
        }
      ],
      "name": "voters",
      "outputs": [
        {
          "internalType": "address",
          "name": "",
          "type": "address"
        }
      ],
      "stateMutability": "view",
      "type": "function",
      "constant": true
    },
    {
      "inputs": [],
      "name": "getOwner",
      "outputs": [
        {
          "internalType": "address",
          "name": "",
          "type": "address"
        }
      ],
      "stateMutability": "view",
      "type": "function",
      "constant": true
    },
    {
      "inputs": [
        {
          "internalType": "string",
          "name": "_name",
          "type": "string"
        },
        {
          "internalType": "string",
          "name": "_party",
          "type": "string"
        },
        {
          "internalType": "uint256",
          "name": "_constituency",
          "type": "uint256"
        }
      ],
      "name": "addCandidate",
      "outputs": [],
      "stateMutability": "nonpayable",
      "type": "function"
    },
    {
      "inputs": [],
      "name": "getCandidateNumber",
      "outputs": [
        {
          "internalType": "uint256",
          "name": "",
          "type": "uint256"
        }
      ],
      "stateMutability": "view",
      "type": "function",
      "constant": true
    },
    {
      "inputs": [
        {
          "internalType": "string",
          "name": "_name",
          "type": "string"
        },
        {
          "internalType": "string",
          "name": "_aadhar",
          "type": "string"
        },
        {
          "internalType": "uint256",
          "name": "_constituency",
          "type": "uint256"
        }
      ],
      "name": "requestVoter",
      "outputs": [],
      "stateMutability": "nonpayable",
      "type": "function"
    },
    {
      "inputs": [],
      "name": "getVoterCount",
      "outputs": [
        {
          "internalType": "uint256",
          "name": "",
          "type": "uint256"
        }
      ],
      "stateMutability": "view",
      "type": "function",
      "constant": true
    },
    {
      "inputs": [
        {
          "internalType": "address",
          "name": "_address",
          "type": "address"
        }
      ],
      "name": "verifyVoter",
      "outputs": [],
      "stateMutability": "nonpayable",
      "type": "function"
    },
    {
      "inputs": [
        {
          "internalType": "uint256",
          "name": "candidateId",
          "type": "uint256"
        }
      ],
      "name": "vote",
      "outputs": [],
      "stateMutability": "nonpayable",
      "type": "function"
    },
    {
      "inputs": [],
      "name": "startElection",
      "outputs": [],
      "stateMutability": "nonpayable",
      "type": "function"
    },
    {
      "inputs": [],
      "name": "endElection",
      "outputs": [],
      "stateMutability": "nonpayable",
      "type": "function"
    },
    {
      "inputs": [],
      "name": "getStart",
      "outputs": [
        {
          "internalType": "bool",
          "name": "",
          "type": "bool"
        }
      ],
      "stateMutability": "view",
      "type": "function",
      "constant": true
    },
    {
      "inputs": [],
      "name": "getEnd",
      "outputs": [
        {
          "internalType": "bool",
          "name": "",
          "type": "bool"
        }
      ],
      "stateMutability": "view",
      "type": "function",
      "constant": true
    }
  ],
  "bytecode": "0x608060405234801561001057600080fd5b50336000806101000a81548173ffffffffffffffffffffffffffffffffffffffff021916908373ffffffffffffffffffffffffffffffffffffffff160217905550600060018190555060006002819055506000600360006101000a81548160ff0219169083151502179055506000600360016101000a81548160ff0219169083151502179055506114c2806100a66000396000f3fe608060405234801561001057600080fd5b50600436106100f55760003560e01c80636247e532116100975780638da5cb5b116100665780638da5cb5b146102415780639f05a36d1461025f578063c5292c671461027d578063da58c7d91461029b576100f5565b80636247e532146101c957806362d73eb8146101fd5780637d9cf19614610207578063893d20e814610223576100f5565b8063364dff25116100d3578063364dff25146101505780633ca09fdf1461016e5780635938750d1461018a57806359f78468146101bf576100f5565b80630121b93f146100fa57806309bd09501461011657806311174a2914610132575b600080fd5b610114600480360381019061010f9190610ce9565b6102cb565b005b610130600480360381019061012b9190610d74565b610457565b005b61013a61050d565b6040516101479190610db0565b60405180910390f35b610158610517565b6040516101659190610db0565b60405180910390f35b61018860048036038101906101839190610f11565b610521565b005b6101a4600480360381019061019f9190610d74565b610629565b6040516101b696959493929190611045565b60405180910390f35b6101c76107af565b005b6101e360048036038101906101de9190610ce9565b61083f565b6040516101f49594939291906110b4565b60405180910390f35b610205610985565b005b610221600480360381019061021c9190610f11565b610a15565b005b61022b610be5565b6040516102389190611115565b60405180910390f35b610249610c0e565b6040516102569190611115565b60405180910390f35b610267610c32565b6040516102749190611130565b60405180910390f35b610285610c49565b6040516102929190611130565b60405180910390f35b6102b560048036038101906102b09190610ce9565b610c60565b6040516102c29190611115565b60405180910390f35b60001515600660003373ffffffffffffffffffffffffffffffffffffffff1673ffffffffffffffffffffffffffffffffffffffff16815260200190815260200160002060040160009054906101000a900460ff1615151461032b57600080fd5b60011515600660003373ffffffffffffffffffffffffffffffffffffffff1673ffffffffffffffffffffffffffffffffffffffff16815260200190815260200160002060040160019054906101000a900460ff1615151461038b57600080fd5b60011515600360009054906101000a900460ff161515146103ab57600080fd5b60001515600360019054906101000a900460ff161515146103cb57600080fd5b60016004600083815260200190815260200160002060020160008282546103f2919061117a565b925050819055506001600660003373ffffffffffffffffffffffffffffffffffffffff1673ffffffffffffffffffffffffffffffffffffffff16815260200190815260200160002060040160006101000a81548160ff02191690831515021790555050565b60008054906101000a900473ffffffffffffffffffffffffffffffffffffffff1673ffffffffffffffffffffffffffffffffffffffff163373ffffffffffffffffffffffffffffffffffffffff16146104af57600080fd5b6001600660008373ffffffffffffffffffffffffffffffffffffffff1673ffffffffffffffffffffffffffffffffffffffff16815260200190815260200160002060040160016101000a81548160ff02191690831515021790555050565b6000600254905090565b6000600154905090565b60008054906101000a900473ffffffffffffffffffffffffffffffffffffffff1673ffffffffffffffffffffffffffffffffffffffff163373ffffffffffffffffffffffffffffffffffffffff161461057957600080fd5b60006040518060a001604052808581526020018481526020016000815260200183815260200160015481525090508060046000600154815260200190815260200160002060008201518160000190816105d291906113ba565b5060208201518160010190816105e891906113ba565b50604082015181600201556060820151816003015560808201518160040155905050600180600082825461061c919061117a565b9250508190555050505050565b60066020528060005260406000206000915090508060000160009054906101000a900473ffffffffffffffffffffffffffffffffffffffff1690806001018054610672906111dd565b80601f016020809104026020016040519081016040528092919081815260200182805461069e906111dd565b80156106eb5780601f106106c0576101008083540402835291602001916106eb565b820191906000526020600020905b8154815290600101906020018083116106ce57829003601f168201915b505050505090806002018054610700906111dd565b80601f016020809104026020016040519081016040528092919081815260200182805461072c906111dd565b80156107795780601f1061074e57610100808354040283529160200191610779565b820191906000526020600020905b81548152906001019060200180831161075c57829003601f168201915b5050505050908060030154908060040160009054906101000a900460ff16908060040160019054906101000a900460ff16905086565b60008054906101000a900473ffffffffffffffffffffffffffffffffffffffff1673ffffffffffffffffffffffffffffffffffffffff163373ffffffffffffffffffffffffffffffffffffffff161461080757600080fd5b6001600360016101000a81548160ff0219169083151502179055506000600360006101000a81548160ff021916908315150217905550565b6004602052806000526040600020600091509050806000018054610862906111dd565b80601f016020809104026020016040519081016040528092919081815260200182805461088e906111dd565b80156108db5780601f106108b0576101008083540402835291602001916108db565b820191906000526020600020905b8154815290600101906020018083116108be57829003601f168201915b5050505050908060010180546108f0906111dd565b80601f016020809104026020016040519081016040528092919081815260200182805461091c906111dd565b80156109695780601f1061093e57610100808354040283529160200191610969565b820191906000526020600020905b81548152906001019060200180831161094c57829003601f168201915b5050505050908060020154908060030154908060040154905085565b60008054906101000a900473ffffffffffffffffffffffffffffffffffffffff1673ffffffffffffffffffffffffffffffffffffffff163373ffffffffffffffffffffffffffffffffffffffff16146109dd57600080fd5b6001600360006101000a81548160ff0219169083151502179055506000600360016101000a81548160ff021916908315150217905550565b60006040518060c001604052803373ffffffffffffffffffffffffffffffffffffffff16815260200185815260200184815260200183815260200160001515815260200160001515815250905080600660003373ffffffffffffffffffffffffffffffffffffffff1673ffffffffffffffffffffffffffffffffffffffff16815260200190815260200160002060008201518160000160006101000a81548173ffffffffffffffffffffffffffffffffffffffff021916908373ffffffffffffffffffffffffffffffffffffffff1602179055506020820151816001019081610afe91906113ba565b506040820151816002019081610b1491906113ba565b506060820151816003015560808201518160040160006101000a81548160ff02191690831515021790555060a08201518160040160016101000a81548160ff0219169083151502179055509050506005339080600181540180825580915050600190039060005260206000200160009091909190916101000a81548173ffffffffffffffffffffffffffffffffffffffff021916908373ffffffffffffffffffffffffffffffffffffffff160217905550600160026000828254610bd8919061117a565b9250508190555050505050565b60008060009054906101000a900473ffffffffffffffffffffffffffffffffffffffff16905090565b60008054906101000a900473ffffffffffffffffffffffffffffffffffffffff1681565b6000600360019054906101000a900460ff16905090565b6000600360009054906101000a900460ff16905090565b60058181548110610c7057600080fd5b906000526020600020016000915054906101000a900473ffffffffffffffffffffffffffffffffffffffff1681565b6000604051905090565b600080fd5b600080fd5b6000819050919050565b610cc681610cb3565b8114610cd157600080fd5b50565b600081359050610ce381610cbd565b92915050565b600060208284031215610cff57610cfe610ca9565b5b6000610d0d84828501610cd4565b91505092915050565b600073ffffffffffffffffffffffffffffffffffffffff82169050919050565b6000610d4182610d16565b9050919050565b610d5181610d36565b8114610d5c57600080fd5b50565b600081359050610d6e81610d48565b92915050565b600060208284031215610d8a57610d89610ca9565b5b6000610d9884828501610d5f565b91505092915050565b610daa81610cb3565b82525050565b6000602082019050610dc56000830184610da1565b92915050565b600080fd5b600080fd5b6000601f19601f8301169050919050565b7f4e487b7100000000000000000000000000000000000000000000000000000000600052604160045260246000fd5b610e1e82610dd5565b810181811067ffffffffffffffff82111715610e3d57610e3c610de6565b5b80604052505050565b6000610e50610c9f565b9050610e5c8282610e15565b919050565b600067ffffffffffffffff821115610e7c57610e7b610de6565b5b610e8582610dd5565b9050602081019050919050565b82818337600083830152505050565b6000610eb4610eaf84610e61565b610e46565b905082815260208101848484011115610ed057610ecf610dd0565b5b610edb848285610e92565b509392505050565b600082601f830112610ef857610ef7610dcb565b5b8135610f08848260208601610ea1565b91505092915050565b600080600060608486031215610f2a57610f29610ca9565b5b600084013567ffffffffffffffff811115610f4857610f47610cae565b5b610f5486828701610ee3565b935050602084013567ffffffffffffffff811115610f7557610f74610cae565b5b610f8186828701610ee3565b9250506040610f9286828701610cd4565b9150509250925092565b610fa581610d36565b82525050565b600081519050919050565b600082825260208201905092915050565b60005b83811015610fe5578082015181840152602081019050610fca565b60008484015250505050565b6000610ffc82610fab565b6110068185610fb6565b9350611016818560208601610fc7565b61101f81610dd5565b840191505092915050565b60008115159050919050565b61103f8161102a565b82525050565b600060c08201905061105a6000830189610f9c565b818103602083015261106c8188610ff1565b905081810360408301526110808187610ff1565b905061108f6060830186610da1565b61109c6080830185611036565b6110a960a0830184611036565b979650505050505050565b600060a08201905081810360008301526110ce8188610ff1565b905081810360208301526110e28187610ff1565b90506110f16040830186610da1565b6110fe6060830185610da1565b61110b6080830184610da1565b9695505050505050565b600060208201905061112a6000830184610f9c565b92915050565b60006020820190506111456000830184611036565b92915050565b7f4e487b7100000000000000000000000000000000000000000000000000000000600052601160045260246000fd5b600061118582610cb3565b915061119083610cb3565b92508282019050808211156111a8576111a761114b565b5b92915050565b7f4e487b7100000000000000000000000000000000000000000000000000000000600052602260045260246000fd5b600060028204905060018216806111f557607f821691505b602082108103611208576112076111ae565b5b50919050565b60008190508160005260206000209050919050565b60006020601f8301049050919050565b600082821b905092915050565b6000600883026112707fffffffffffffffffffffffffffffffffffffffffffffffffffffffffffffffff82611233565b61127a8683611233565b95508019841693508086168417925050509392505050565b6000819050919050565b60006112b76112b26112ad84610cb3565b611292565b610cb3565b9050919050565b6000819050919050565b6112d18361129c565b6112e56112dd826112be565b848454611240565b825550505050565b600090565b6112fa6112ed565b6113058184846112c8565b505050565b5b818110156113295761131e6000826112f2565b60018101905061130b565b5050565b601f82111561136e5761133f8161120e565b61134884611223565b81016020851015611357578190505b61136b61136385611223565b83018261130a565b50505b505050565b600082821c905092915050565b600061139160001984600802611373565b1980831691505092915050565b60006113aa8383611380565b9150826002028217905092915050565b6113c382610fab565b67ffffffffffffffff8111156113dc576113db610de6565b5b6113e682546111dd565b6113f182828561132d565b600060209050601f8311600181146114245760008415611412578287015190505b61141c858261139e565b865550611484565b601f1984166114328661120e565b60005b8281101561145a57848901518255600182019150602085019450602081019050611435565b868310156114775784890151611473601f891682611380565b8355505b6001600288020188555050505b50505050505056fea2646970667358221220a0a4bec3e6ca04552bb7ced2e1770cc8f5de49ab9a4a1c866df2cd48deb91bcd64736f6c63430008110033",
  "immutableReferences": {},
  "source": "// SPDX-License-Identifier: GPL-3.0\r\npragma solidity >=0.4.17 <=9.0.0;\r\n\r\n\r\ncontract Election {\r\n\r\n    address public owner;\r\n    uint candidateCount;\r\n\r\n    uint voterCount;\r\n\r\n    bool start;\r\n    bool end;\r\n\r\n    // Constructor\r\n    constructor() {\r\n        owner = msg.sender;\r\n        candidateCount = 0;\r\n        voterCount = 0;\r\n        start = false;\r\n        end = false;\r\n    }\r\n\r\n    function getOwner() public view returns(address) {\r\n        return owner;\r\n    }\r\n\r\n    // Only Admin can access\r\n    modifier onlyAdmin() {\r\n        require(msg.sender == owner);\r\n        _;\r\n    }\r\n\r\n    struct Candidate{\r\n        string name;\r\n        string party;\r\n        uint voteCount;\r\n        uint constituency;\r\n        uint candidateId;\r\n    }\r\n\r\n    mapping(uint => Candidate) public candidateDetails;\r\n\r\n    // Only admin can add candidate\r\n    function addCandidate(string memory _name, string memory _party, uint _constituency) public onlyAdmin {\r\n        Candidate memory newCandidate = Candidate({\r\n           name : _name,\r\n           party : _party,\r\n           voteCount : 0,\r\n           constituency : _constituency,\r\n           candidateId : candidateCount\r\n        });\r\n\r\n        candidateDetails[candidateCount] = newCandidate;\r\n        candidateCount += 1;\r\n    }\r\n\r\n    // get total number of candidates\r\n    function getCandidateNumber() public view returns (uint) {\r\n        return candidateCount;\r\n    }\r\n\r\n    struct Voter{\r\n        address voterAddress;\r\n        string name;\r\n        string aadhar;\r\n        uint constituency;\r\n        bool hasVoted;\r\n        bool isVerified;\r\n    }\r\n\r\n    address[] public voters;\r\n    mapping(address => Voter) public voterDetails;\r\n\r\n    // request to be added as voter\r\n    function requestVoter(string memory _name, string memory _aadhar, uint _constituency) public {\r\n        Voter memory newVoter = Voter({ \r\n           voterAddress : msg.sender,\r\n           name : _name,\r\n           aadhar : _aadhar,\r\n           constituency : _constituency,\r\n           hasVoted : false,\r\n           isVerified : false\r\n        });\r\n\r\n        voterDetails[msg.sender] = newVoter;\r\n        voters.push(msg.sender);\r\n        voterCount += 1;\r\n    }\r\n\r\n    // get total number of voters\r\n    function getVoterCount() public view returns (uint) {\r\n        return voterCount;\r\n    }\r\n\r\n    function verifyVoter(address _address) public onlyAdmin {\r\n        voterDetails[_address].isVerified = true;\r\n    }\r\n\r\n    function vote(uint candidateId) public{\r\n        require(voterDetails[msg.sender].hasVoted == false);\r\n        require(voterDetails[msg.sender].isVerified == true);\r\n        require(start == true);\r\n        require(end == false);\r\n\r\n        candidateDetails[candidateId].voteCount += 1;\r\n        voterDetails[msg.sender].hasVoted = true;\r\n    }\r\n\r\n    function startElection() public onlyAdmin {\r\n        start = true;\r\n        end = false;\r\n    }\r\n\r\n    function endElection() public onlyAdmin {\r\n        end = true;\r\n        start = false;\r\n    }\r\n\r\n    function getStart() public view returns (bool) {\r\n        return start;\r\n    }\r\n\r\n    function getEnd() public view returns (bool) {\r\n        return end;\r\n    }\r\n}",
  "sourcePath": "C:\\Users\\ANKIT\\Desktop\\Testing\\Blockchain\\contracts\\Election.sol",
  "compiler": {
    "name": "solc",
    "version": "0.8.17+commit.8df45f5f.Emscripten.clang"
  },
  "schemaVersion": "3.4.11",
  "updatedAt": "2023-02-15T16:27:52.993Z",
  "networkType": "ethereum",
  "devdoc": {
    "kind": "dev",
    "methods": {},
    "version": 1
  },
  "userdoc": {
    "kind": "user",
    "methods": {},
    "version": 1
  }
}